:020000040000FA
:100000000A128A11FC2FFF1B0D2883137F188317F8
:100010000008840A0319FF0A080000308A00040857
:10002000840A8207003445346D3470346C346F3484
:1000300079346534653420344A346F3468346E342E
:10004000203444346F34653420346C346F34673476
:10005000673465346434203469346E340D340A34C2
:1000600000345234463449344434203453347934DF
:100070007334743465346D342034523465346134EF
:10008000643479340D340A340034523446344934FB
:100090004434203441347434743465346E346434FC
:1000A00061346E3463346534003455346E346B34EB
:1000B0006E346F3477346E342034523446344934DD
:1000C00044343A3420340034413463346334653486
:1000D000733473342034443465346E346934653495
:1000E000643421340034413463346334653473340C
:1000F000733420344734723461346E34743465346C
:10010000643400345334633461346E342034433403
:100110006134723464342E342E342E34003431344D
:100120003234333434343534363437343834393483
:1001300030343134323400343234333434343534BE
:10014000363437343834393430343134323433346B
:10015000003455346E346B346E346F3477346E340F
:100160002034523446344934443400344A346F34F1
:0E01700068346E34203444346F346534003407
:10098A00831203138C1EC52C1A0808008312031342
:10099A00981C0800181218160800F0008312031396
:1009AA000C1ED32C70089900080083160313071332
:1009BA0087172430980090308312031398008130EF
:1009CA00831603139900080083120313861508304F
:1009DA00F000F00BEE2C831203138611A630F00000
:1009EA00F00BF52C00000800F9007903031D002D17
:1009FA0077087F3E022D7708BF3EF8007808FA0094
:100A0A007A080A128A1166250800F7007708840016
:100A1A000A128A110D200A128A11003A03190800D3
:100A2A00770884000A128A110D200A128A110A1202
:100A3A008A1126250A128A110130F6007608F7076C
:100A4A000B2DF5008312031306157508F400043004
:100A5A000310F40CFF3E031D2D2D74080A128A118F
:100A6A00AC250A128A1175080F390A128A11AC25A7
:100A7A000A128A11A630F400F40B412D0000080076
:100A8A00F300F4017408700784000A128A110D2019
:100A9A000A128A11F10074087307F20072088400BE
:100AAA0083130008710603195C2D00300800013019
:100ABA00F1007108F4070C307402031C472D013051
:100ACA000800F6008312031306117608F4000430B6
:100ADA000310F40CFF3E031D6D2D74080A128A11CF
:100AEA00AC250A128A1176080F390A128A11AC2526
:100AFA000A128A110D30F500FB30F400F40B832D35
:100B0A00F50B832D882D0800720883120313FF004A
:100B1A00710884000A128A1103200A128A11003A03
:100B2A00031908007208FF00710884000A128A116A
:100B3A0003200A128A110A128A11D2240A128A116D
:100B4A000130F1070318F20A0030F207892DF30089
:100B5A0073080139F100F10E8312031306087106B6
:100B6A00EF39710686007308F1000310710C013920
:100B7A00F200F20EF20D06087206DF3972068600DE
:100B8A007308F10002300310F10CFF3E031DC82D5B
:100B9A0071080139F200F20EF20DF20D0608720622
:100BAA00BF39720686007308F10003300310F10C96
:100BBA00FF3E031DDB2D71080139F200F20CF20C25
:100BCA00060872067F39720686000A128A11E9241B
:100BDA00080083120313061186118230F800DD30F3
:100BEA00F700F70BF62DF80BF62DFB2D03300A1242
:100BFA008A11AC250A128A112130F8007630F700E2
:100C0A00F70B052EF80B052E000003300A128A1185
:100C1A00AC250A128A11F930F700F70B122E152E9D
:100C2A0003300A128A11AC250A128A1102300A12FA
:100C3A008A11AC250A128A1128300A128A116625ED
:100C4A000A128A110C300A128A1166250A128A11AE
:100C5A0006300A128A1166250A128A1101300A120E
:100C6A008A1166250A128A110D30F800FB30F70046
:100C7A00F70B3D2EF80B3D2E422E08008316031368
:100C8A00850186018030870088018312031385015C
:100C9A008601870188010A128A11EE250A128A1131
:100CAA000A128A11DA240A128A111F30F1008030DE
:100CBA00F2000A128A1189250A128A118312031371
:100CCA00081088100811F701F70A01300A128A1170
:100CDA00F9240A128A1133300A128A110A250A12D1
:100CEA008A11F701F70A02300A128A11F9240A1244
:100CFA008A1170300A128A110A250A128A113330AF
:100D0A0083120313A300BB30A200DF30A100A10BA2
:100D1A008C2EA20B8C2EA30B8C2E0A128A11CB249A
:100D2A000A128A1183120313B1010C30310203181B
:100D3A00BD2E0A128A11C5240A128A1183120313BC
:100D4A00A1002108B20030303202031C9A2E3A3038
:100D5A00320203189A2E3208A1003108243E840078
:100D6A002108831380000130A1002108B1079A2EBF
:100D7A00B00124300A128A1105270A128A11831235
:100D8A0003130810881008111A3083120313A300E2
:100D9A005E30A2006D30A100A10BD12EA20BD12E84
:100DAA00A30BD12ED82E01300A128A1166250A12F7
:100DBA008A110D3083120313A200FB30A100A10B8C
:100DCA00E42EA20BE42EF701F70A01300A128A1167
:100DDA00F9240A128A1133300A128A110A250A12D0
:100DEA008A11F701F70A02300A128A11F9240A1243
:100DFA008A1170300A128A110A250A128A11972E4C
:100E0A0083120313A0004B30F1008030F2000A1263
:100E1A008A1189250A128A11831203132008F10004
:100E2A000030F2000A128A1189250A128A111C302E
:100E3A00F1008030F2000A128A1189250A128A11F9
:100E4A007D30FB007B08F0008312031320080A128E
:100E5A008A1145250A128A11003A031D432F8A3046
:100E6A00FB007B08F0008312031320080A128A1180
:100E7A0045250A128A11003A03198A2F831203138D
:100E8A0008148810081101300A128A1166250A12FC
:100E9A008A110D30FC00FB30FB00FB0B522FFC0BC0
:100EAA00522F572FF701F70A01300A128A11F92433
:100EBA000A128A1161300A128A110A250A128A1143
:100ECA00F701F70A02300A128A11F9240A128A1162
:100EDA00A4300A128A110A250A128A110130F10075
:100EEA008030F2000A128A1189250A128A11FE300C
:100EFA00FD00A730FC006530FB00FB0B822FFC0BCA
:100F0A00822FFD0B822F892F0800831203130810EA
:100F1A00881408150830FD009D30FC000530FB00E0
:100F2A00FB0B952FFC0B952FFD0B952F9C2F8312F6
:100F3A000313081101300A128A1166250A128A114E
:100F4A000D30FD00AF30FC00B630FB00FB0BAB2FC1
:100F5A00FC0BAB2FFD0BAB2F0000F701F70A01309A
:100F6A000A128A11F9240A128A1152300A128A11B3
:100F7A000A250A128A11F701F70A02300A128A119F
:100F8A00F9240A128A1197300A128A110A250A12BA
:100F9A008A114330F1008030F2000A128A11892541
:100FAA000A128A11831203132008F1000030F2009A
:100FBA000A128A1189250A128A111C30F10080301E
:100FCA00F2000A128A1189250A128A11FE30FD00DE
:100FDA00A730FC006530FB00FB0BF12FFC0BF12F57
:100FEA00FD0BF12FF82F8312031308110800830158
:060FFA000A128A11432EC9
:02400E00723FFF
:00000001FF
