:020000040000FA
:060000000A128A11F52F1F
:1001FC00F000831203130C1EFF28700899000800EE
:10020C0064008001840A04060319003404060729DB
:10021C000130831203139F008030831603139F0059
:10022C000514080083120313981C1E2918121816A3
:10023C008C1E22291A08080000300800F1007B30BF
:10024C0071020318312961307102031C3129DF302E
:10025C00F0007008F105710808008312031386146E
:10026C000330F000F00B3829831203138610A630EC
:10027C00F000F00B3F290000080001300A128A112F
:10028C00F8210A128A110D30F800FB30F700F70B39
:10029C004D29F80B4D2952290800F9007903031D4B
:1002AC005A2977087F3E5C297708BF3EF80078080A
:1002BC00FA007A080A128A11F82108008312031333
:1002CC008810CC010811D330F1008830F2000A12EA
:1002DC008A113E220A128A110A128A11CF240800AE
:1002EC00831203130810CD0108119C30F1008830E3
:1002FC00F2000A128A113E220A128A110A128A117B
:10030C00CF24080083160313071387178130990035
:10031C0018151812831203139817831603139816C3
:10032C008312031318160800831203138814CC01CC
:10033C00CC0A08158811E430F1008830F2000A125A
:10034C008A113E220A128A110A128A11CF2408003D
:10035C00831203130814CD01CD0A08158811AF3090
:10036C00F1008830F2000A128A113E220A128A1118
:10037C000A128A11CF240800C730831203139F0579
:10038C002130F200F20BC829831203131F151F1919
:10039C00CD291E08F400831603131E08F3007408FD
:1003AC00F1007308F0000800F50083120313061423
:1003BC007508F40004300310F40CFF3E031DE12912
:1003CC0074080A128A11E8230A128A1175080F3967
:1003DC000A128A11E8230A128A115330F400F40B22
:1003EC00F5290800F6008312031306107608F400B2
:1003FC0004300310F40CFF3E031DFF2974080A128D
:10040C008A11E8230A128A1176080F390A128A1106
:10041C00E8230A128A110D30F500FB30F400F40BBE
:10042C00152AF50B152A1A2A0800770883120313CC
:10043C00FF00760884000A128A1500200A128A111D
:10044C00003A031908007708FF00760884000A12A6
:10045C008A1500200A128A110A128A11DA210A124C
:10046C008A110130F6070318F70A0030F7071B2A28
:10047C00720883120313FF00710884000A128A1594
:10048C0000200A128A11003A031908007208FF00B2
:10049C00710884000A128A1500200A128A110A12A5
:1004AC008A11FE200A128A110130F1070318F20A90
:1004BC000030F2073E2AF600722A76088400000803
:1004CC0003198B2A0130F2007208F6070130F0078D
:1004DC000318F10A0030F107710883120313FF00AF
:1004EC00700884000A128A1500200A128A11F20080
:1004FC007608840083130008F30072087302F4007A
:10050C007408F50075080319632A7508F000F101E9
:10051C00F01BF1030800780879040319BE2AFD01C9
:10052C00FD0AF91BA52A01300310F80DF90DFF3E49
:10053C00031D9A2A0130FC007C08FD07972A7908D4
:10054C007B02031DAB2A78087A02031CB32A7808B5
:10055C00FA027908031CFB03FB0201300310F90CAF
:10056C00F80CFF3E031DB42A0130FD02031DA52A21
:10057C007B08F9007A08F80008000A128A11182181
:10058C000A128A1183120313C7004708C8004808CF
:10059C00031908000D3048060319D82A0A304806FA
:1005AC00031DE42A4E08031908004E084F3E840030
:1005BC00831380010A128A115E2608001D304E0238
:1005CC00031808004808C7004E084F3E840047082F
:1005DC00831380000130C7004708CE074E084F3EFA
:1005EC008400800108000A128A11C2210A128A11A1
:1005FC00710883120313A7007008A6002608F000E8
:10060C002708F100F201F3010030F7000030F6008A
:10061C000130F500F430F4000A128A11A9230A12F1
:10062C008A11700883120313A2007108A3007208C8
:10063C00A4007308A5000A300310A50CA40CA30C8D
:10064C00A20CFF3E031D222B2308A9002208A800A0
:10065C002908A1002808A00008000A128A11F92212
:10066C000A128A11831203132108C4002008C30044
:10067C001330F1008930F2000A128A113E220A125C
:10068C008A11D63083120313A0008930A1004408CC
:10069C00A3004308A20039300A128A1120270A123B
:1006AC008A113930F1000030F2000A128A113E2210
:1006BC000A128A11C030F1008930F2000A128A1134
:1006CC003E220A128A110A128A11CF240800F5015F
:1006DC00F601700871040319A42BF701F70AF11B3A
:1006EC00832B01300310F00DF10DFF3E031D782B11
:1006FC000130F4007408F707752B01300310F50D69
:10070C00F60DFF3E031D842B71087302031D902B05
:10071C0070087202031C992B7008F2027108031CFA
:10072C00F303F302751401300310F10CF00CFF3ECF
:10073C00031D9A2B0130F702031D832B7608F10061
:10074C007508F00008000030FC000030FB000030A1
:10075C00FA000030F900701CC72B7408F9077508F3
:10076C0003110318013E031DFA0776080311031841
:10077C00013E031DFB07770803110318013E031DFF
:10078C00FC070130F8000310F40DF50DF60DF70D14
:10079C00F80BC92B01300310F30CF20CF10CF00C1C
:1007AC00FF3E031DD12B7308720471047004031DEA
:1007BC00B12B7C08F3007B08F2007A08F100790871
:1007CC00F0000800F30073080139F100F10DF10D90
:1007DC008312031306087106FB3971068600730831
:1007EC00F1000310710C0139F200F20DF20DF20D53
:1007FC0006087206F739720686007308F10002309B
:10080C000310F10CFF3E031D062C71080139F20098
:10081C00F20E06087206EF39720686007308F100B4
:10082C0003300310F10CFF3E031D172C7108013926
:10083C00F200F20EF20D06087206DF39720686001F
:10084C000A128A11332108008430F1008830F2003A
:10085C000A128A113E220A128A113A30F1008930AA
:10086C00F2000A128A113E220A128A112E30F1006D
:10087C008930F2000A128A113E220A128A1159306A
:10088C00F1008930F2000A128A113E220A128A11F2
:10089C004530F1008930F2000A128A113E220A1208
:1008AC008A116230F1008930F2000A128A113E225C
:1008BC000A128A118B30F1008930F2000A128A1167
:1008CC003E220A128A118430F1008930F2000A1299
:1008DC008A113E220A128A113930F1008830F20056
:1008EC000A128A113E220800831203130610861086
:1008FC008230F800DD30F700F70B822CF80B822CDD
:10090C00872C03300A128A11E8230A128A1121302B
:10091C00F8007630F700F70B912CF80B912C0000B7
:10092C0003300A128A11E8230A128A11F930F700EF
:10093C00F70B9E2CA12C03300A128A11E8230A1201
:10094C008A1102300A128A11E8230A128A112830FD
:10095C000A128A11F8210A128A110C300A128A1111
:10096C00F8210A128A1106300A128A11F8210A1289
:10097C008A1101300A128A11F8210A128A110D30DB
:10098C00F800FB30F700F70BC92CF80BC92CCE2C58
:10099C0008000A128A11F9220A128A11831203130F
:1009AC002108B8002008B7000A128A1143210A1244
:1009BC008A11F701F70A01300A128A1153210A121F
:1009CC008A119930F6008930F7000A128A111B221D
:1009DC000A128A11831203134D080319F92CCF3014
:1009EC00F6008930FC2C8030F6008930F7000A12B2
:1009FC008A111B220A128A11B430F6008930F700D2
:100A0C000A128A111B220A128A11831203134C0830
:100A1C000319142DA430F6008930172D8030F60000
:100A2C008930F7000A128A111B220A128A11F70167
:100A3C00F70A02300A128A1153210A128A11BA30AB
:100A4C00F6008930F7000A128A111B220A128A1149
:100A5C00D63083120313A0008930A1003808A300FC
:100A6C003708A2002F300A128A1120270A128A1185
:100A7C002F30F6000030F7000A128A111B220A12DE
:100A8C008A11D330F6008930F7000A128A111B2222
:100A9C0008000A128A11F9220A128A11831203130E
:100AAC002108C4002008C3001C30F1008830F2007B
:100ABC000A128A113E220A128A117430F10089300E
:100ACC00F2000A128A113E220A128A1183120313AF
:100ADC004D080319752D5D30F1008930782D4930A2
:100AEC00F1008930F2000A128A113E220A128A1190
:100AFC00AE30F1008930F2000A128A113E220A123D
:100B0C008A11831203134C080319902D5D30F100E8
:100B1C008930932D4930F1008930F2000A128A1184
:100B2C003E220A128A119230F1008930F2000A1228
:100B3C008A113E220A128A11D63083120313A000A6
:100B4C008930A1004408A3004308A20039300A12DE
:100B5C008A1120270A128A113930F1000030F20074
:100B6C000A128A113E220A128A11C030F100893011
:100B7C00F2000A128A113E220A128A113830F10050
:100B8C008830F2000A128A113E220A128A110A12C5
:100B9C008A11CF24080083160313860188010713DA
:100BAC00871783120313860188010A128A117A248B
:100BBC000A128A110A128A1188210A128A110A123F
:100BCC008A110E210A128A1183120313081088103D
:100BDC000811881108123530F1008830F2000A1221
:100BEC008A113E220A128A115230F1008830F2002A
:100BFC000A128A113E220A128A110430F10089303D
:100C0C00F2000A128A113E220A128A116B30F1008C
:100C1C008830F2000A128A113E220A128A113930E7
:100C2C00F1008830F2000A128A113E220A128A114F
:100C3C000A128A1143210A128A11F701F70A0130AC
:100C4C000A128A1153210A128A11F430F6008830E4
:100C5C00F7000A128A111B220A128A11F701F70AED
:100C6C0002300A128A1153210A128A112130F6001D
:100C7C008930F7000A128A111B220A128A113330AA
:100C8C0083120313CB00BB30CA00DF30C900C90B81
:100C9C004D2ECA0B4D2ECB0B4D2E0A128A11CF2482
:100CAC000A128A110A128A11C3220A128A11582EA8
:100CBC0083120313C60146084F3E840083130008B9
:100CCC0003197F2E46084F3E840000080A128A1131
:100CDC0024210A128A1183120313C50046084F3EC1
:100CEC0084004508831380000130C5004508C60701
:100CFC00612E6B30F0008930F1004F300A128A11EE
:100D0C0061220A128A1170087104031D932E0A12B3
:100D1C008A11AE210A128A111B2F4F30F000893034
:100D2C00F1004F300A128A1161220A128A117008DE
:100D3C007104031DA72E0A128A1176210A128A1138
:100D4C001B2FA030F0008930F1004F300A128A11AD
:100D5C0061220A128A1170087104031DBB2E0A123B
:100D6C008A119A210A128A111B2F7C30F0008930CB
:100D7C00F1004F300A128A1161220A128A1170088E
:100D8C007104031DCF2E0A128A1164210A128A11D2
:100D9C001B2FA730F0008930F1004F300A128A1156
:100DAC0061220A128A1170087104031DE32E0A12C3
:100DBC008A114F250A128A111B2FCA30F000893074
:100DCC00F1004F300A128A1161220A128A1170083E
:100DDC007104031DF72E0A128A1133230A128A1189
:100DEC001B2FC530F0008930F1004F300A128A11E8
:100DFC0061220A128A1170087104031D0B2F0A124A
:100E0C008A112A240A128A111B2FC130F100883052
:100E1C00F2000A128A113E220A128A116B30F1007A
:100E2C008830F2000A128A113E2283120313CE017B
:100E3C00CF01080083120313AD002230A400240854
:100E4C00A9002108A5002008A400A00A0319A10AE2
:100E5C002508FF00240884000A128A1500200A12B3
:100E6C008A11A6002608AE002E080319F02F253093
:100E7C002E0603194D2F2E08A4002D0884002408DB
:100E8C00831380000130A4002408AD07272FA8018C
:100E9C00542FC030A4002408A804742F2108A500E6
:100EAC002008A400A00A0319A10A2508FF002408A1
:100EBC0084000A128A1500200A128A11AE00A600BC
:100ECC00A7012708003A03196C2F272F2608003A90
:100EDC000319F02F753A03194F2F272F2908840077
:100EEC0083130008AA00840A0008AB000230A40097
:100EFC002408A907AE01AE0A2E08A4002407123E4E
:100F0C00840088300318013EFF000A128A15002065
:100F1C000A128A11A5000A128A1500200A128A11D7
:100F2C00A60026082B02031D9D2F25082A02031C50
:100F3C00A72F0130A4002408AE0705302E06031D90
:100F4C00822F2E08A4002408AC00FF30A400240833
:100F5C00AC072C0A0319272F0A30F8000030F900CF
:100F6C002C08A4002407123E840088300318013E8C
:100F7C00FF000A128A1500200A128A11F0000A12C8
:100F8C008A1500200A128A11F1002B08F3002A0896
:100F9C00F2000A128A116D230A128A117108FB00E1
:100FAC007008FA000A128A1191220A128A11780822
:100FBC00303E83120313A5002508AE002E08A400B2
:100FCC002D0884002408831380000130A400240819
:100FDC00AD07AB2F2D088400831380010800831309
:100FEC004C3084006D300A128A11062183010A12DA
:100FFC008A11D12DFF1B0A2883137F188317000831
:10100C00840A0319FF0A08007F087F398A00040844
:10101C00840A0319FF0A8200013400340A340034B4
:10102C0064340034E8340334103427340D340A3477
:10103C002D342D342D342D342D34203448344F346C
:10104C004D344534203453345434413454345534B1
:10105C00533420342D342D342D342D342D340D3483
:10106C000A3400342D342D342D342D342D342D34BC
:10107C002D342D342D342D342D342D342D342D345C
:10108C002D342D342D342D342D342D342D342D344C
:10109C002D340D340A34003448344F344D34453437
:1010AC0020344134553454344F344D344134543459
:1010BC0049344F344E34203453345934533454342B
:1010CC0045344D340D340A3400345434793470348E
:1010DC0065342034483445344C3450342034663430
:1010EC006F347234203463346F346D346D34613446
:1010FC006E34643473340D340A3400340D340A34D1
:10110C0041347634613469346C34613462346C3417
:10111C006534203443346F346D346D3461346E3443
:10112C00643473343A340D340A3400344C34493456
:10113C0047344834543420347434753472346E3437
:10114C006534643420344F34463446340D340A3418
:10115C0000344C34493447344834543420347434D7
:10116C00753472346E346534643420344F344E34F8
:10117C000D340A34003455346E346B346E346F34A1
:10118C0077346E34203463346F346D346D346134A1
:10119C006E3464340D340A340034463441344E34E5
:1011AC0020347434753472346E34653464342034C1
:1011BC004F34463446340D340A340034463441340A
:1011CC004E3420347434753472346E346534643473
:1011DC0020344F344E340D340A34003448344F34F8
:1011EC004D34453420344134553454344F344D341B
:1011FC004134543449344F344E34003453347934FC
:10120C007334743465346D34203452346534613441
:10121C00643479340D340A340034543465346D3408
:10122C0070346534723461347434753472346534AA
:10123C003A34203400345334793473347434653490
:10124C006D34203452346534613464347934003470
:10125C004C34493447344834543420344F344634B5
:10126C0046340D340A3400344C3449344734483451
:10127C00543420344F344E340D340A340034463454
:10128C0041344E3420344F34463446340D340A3411
:10129C0000344C34493447344834543420344F34BB
:1012AC00463446340034463441344E3420344F34C2
:1012BC004E340D340A3400345334543441345434E1
:1012CC00553453340D340A3400344C3449344734D7
:1012DC004834543420344F344E3400344C34493474
:1012EC004734483454343A3420340034463441348E
:1012FC004E3420344F34463446340034483445346C
:10130C004C3450340D340A340034543445344D3498
:10131C0050340D340A340034543445344D34503484
:10132C003A34203400344C346934673468347434BF
:10133C003A340034463441344E3420344F344E3435
:10134C00003453345434413454345534533400340D
:10135C00463441344E343A3420340034203446344C
:10136C0061346E343A340034543465346D34703432
:10137C003A340034203443340D340A3400344834C5
:10138C0045344C3450340034543445344D3450349A
:10139C0000344F344E342034003420344334003481
:0613AC0025347534003405
:02400E00723FFF
:00000001FF
