:020000040000FA
:100000000A128A11FC2F00308A000408840A820731
:10001000003441346C346534723474343A342034EE
:10002000543465346D3470346534723461347434EE
:1000300075347234653420346934733420340034B8
:100040004D346F346E34693474346F3472346934BF
:100050006E3467342E342E342E34003441344C3414
:1000600045345234543421342034543465346D349E
:1000700070343A340034543465346D34703465343B
:10008000723461347434753472346534003420341D
:0E00900043340D340A34003420344334003439
:10086C00F000831203130C1E372C7008990008003B
:10087C0083160313071387172430980090308312C4
:10088C000313980081308316031399000800831218
:10089C00031386140830F000F00B522C8312031350
:1008AC008610A630F000F00B592C00000800F9005F
:1008BC007903031D642C77087F3E662C7708BF3EB6
:1008CC00F8007808FA007A080A128A11EB2408005A
:1008DC008130831203139F008E30831603139F0005
:1008EC000D30F100FB30F000F00B7A2CF10B7A2C70
:1008FC007F2C0800C730831203139F052130F200B0
:10090C00F20B862C831203131F151F198B2C1E0838
:10091C00F100831603131E08F0000800F700770897
:10092C0084000A128A1103200A128A11003A031950
:10093C000800770884000A128A1103200A128A110F
:10094C000A128A11CC240A128A110130F600760898
:10095C00F707952CF200720884000A128A11032002
:10096C000A128A11003A03190800720884000A124C
:10097C008A1103200A128A110A128A1136240A12C9
:10098C008A110130F1007108F207B12CF5008312C5
:10099C00031306147508F40004300310F40CFF3E26
:1009AC00031DD32C74080A128A11BB250A128A1152
:1009BC0075080F390A128A11BB250A128A11A63042
:1009CC00F400F40BE72C00000800F600831203136C
:1009DC0006107608F40004300310F40CFF3E031DDF
:1009EC00F22C74080A128A11BB250A128A11760895
:1009FC000F390A128A11BB250A128A110D30F50023
:100A0C00FB30F400F40B082DF50B082D0D2D080010
:100A1C007008710403193B2DF501F50AF11B222D09
:100A2C0001300310F00DF10DFF3E031D172D0130A9
:100A3C00F4007408F507142D71087302031D282D9A
:100A4C0070087202031C302D7008F2027108031C2E
:100A5C00F303F30201300310F10CF00CFF3E031D05
:100A6C00312D0130F502031D222D7308F10072089F
:100A7C00F0000800F501F601700871040319772DD8
:100A8C00F701F70AF11B562D01300310F00DF10D93
:100A9C00FF3E031D4B2D0130F4007408F707482D61
:100AAC0001300310F50DF60DFF3E031D572D710897
:100ABC007302031D632D70087202031C6C2D7008E9
:100ACC00F2027108031CF303F302751401300310D6
:100ADC00F10CF00CFF3E031D6D2D0130F702031DD0
:100AEC00562D7608F1007508F00008000030FC0067
:100AFC000030FB000030FA000030F900701C9A2D19
:100B0C007408F907750803110318013E031DFA0751
:100B1C00760803110318013E031DFB077708031128
:100B2C000318013E031DFC070130F8000310F40DFF
:100B3C00F50DF60DF70DF80B9C2D01300310F30C91
:100B4C00F20CF10CF00CFF3E031DA42D7308720483
:100B5C0071047004031D842D7C08F3007B08F200E3
:100B6C007A08F1007908F0000800F30073080139E5
:100B7C00F100F10DF10D8312031306087106FB3918
:100B8C00710686007308F1000310710C0139F20034
:100B9C00F20DF20DF20D06087206F7397206860098
:100BAC007308F10002300310F10CFF3E031DD92D28
:100BBC0071080139F200F20E06087206EF3972065E
:100BCC0086007308F10003300310F10CFF3E031D87
:100BDC00EA2D71080139F200F20EF20D06087206C8
:100BEC00DF39720686000A128A114D24080083121E
:100BFC000313A60178087904031D362E30300A122F
:100C0C008A11CC2408000A30F0000030F100790879
:100C1C00F3007808F2000A128A110E250A128A11C2
:100C2C007008303EFA00831203132608203E84001D
:100C3C007A08831380000130FA007A08A6070A307C
:100C4C00F0000030F1007908F3007808F2000A1285
:100C5C008A1140250A128A117108F9007008F800EF
:100C6C00780879040319472E092E0130A6022608AC
:100C7C00203E8400831300080A128A11CC240A1225
:100C8C008A11831203132608031908003B2E8312C2
:100C9C000313A60178087904031D862E30300A123E
:100CAC008A11362408000A30F0000030F10079086F
:100CBC00F3007808F2000A128A110E250A128A1122
:100CCC007008303EFA00831203132608203E84007D
:100CDC007A08831380000130FA007A08A6070A30DC
:100CEC00F0000030F1007908F3007808F2000A12E5
:100CFC008A1140250A128A117108F9007008F8004F
:100D0C00780879040319972E592E0130A60226086B
:100D1C00203E8400831300080A128A1136240A121A
:100D2C008A11831203132608031908008B2E8312D1
:100D3C000313061086108230F800DD30F700F70B35
:100D4C00A52EF80BA52EAA2E03300A128A11BB254C
:100D5C000A128A112130F8007630F700F70BB42E06
:100D6C00F80BB42E000003300A128A11BB250A12AC
:100D7C008A11F930F700F70BC12EC42E03300A127A
:100D8C008A11BB250A128A1102300A128A11BB255C
:100D9C000A128A1128300A128A11EB240A128A11BB
:100DAC000C300A128A11EB240A128A1106300A122C
:100DBC008A11EB240A128A1101300A128A11EB24CF
:100DCC000A128A110D30F800FB30F700F70BEC2EED
:100DDC00F80BEC2EF12E080001308316031385005E
:100DEC0086018030870088018312031385018601F8
:100DFC00870188010A128A119D260A128A110A1289
:100E0C008A113E240A128A110A128A116E240A12BD
:100E1C008A11F701F70A01300A128A115D240A12AD
:100E2C008A1133300A128A1194240A128A11F7019A
:100E3C00F70A02300A128A115D240A128A1118303C
:100E4C000A128A1194240A128A1133308312031362
:100E5C00A900BB30A800DF30A700A70B332FA80BCD
:100E6C00332FA90B332F0A128A1180240A128A11EC
:100E7C00710883120313AC007008AB002B08F00050
:100E8C002C08F100F201F3010030F7000030F600FD
:100E9C000130F500F430F4000A128A117C250A1294
:100EAC008A11700883120313A7007108A800720836
:100EBC00A9007308AA000A300310AA0CA90CA80CEC
:100ECC00A70CFF3E031D622F2808AE002708AD00BB
:100EDC0001300A128A11EB240A128A110D30831286
:100EEC000313A800FB30A700A70B7A2FA80B7A2FAF
:100EFC000030831203132E02333003192D02031C0E
:100F0C00B32F081188110816F701F70A01300A12DD
:100F1C008A115D240A128A1126300A128A1194242D
:100F2C000A128A11F701F70A02300A128A115D249B
:100F3C000A128A11831203132E08F9002D08F800E7
:100F4C000A128A11FD250A128A1144300A128A11DA
:100F5C0094240A128A110130D62F08158811081210
:100F6C00F701F70A01300A128A115D240A128A115C
:100F7C002D300A128A1194240A128A118312031337
:100F8C002E08F9002D08F8000A128A11FD250A1204
:100F9C008A1144300A128A1194240A128A110830D8
:100FAC000A128A11B0240A128A11831203132E0812
:100FBC00F9002D08F8000A128A114D260A128A111E
:100FCC003F300A128A11B0240A128A111A30831285
:100FDC000313A9005E30A8006D30A700A70BF42FF7
:100FEC00A80BF42FA90BF42FFB2F392F83010A1216
:040FFC008A11F22E36
:02400E00723FFF
:00000001FF
